:020000040000FA
:100000000C94AE000C94D6000C94D6000C94D60040
:100010000C94D6000C94D6000C94D6000C94D60008
:100020000C94D6000C94D6000C94D6000C94D600F8
:100030000C94D6000C94D6000C94D6000C94D600E8
:100040000C945C060C94D6000C94CC060C94A6067A
:100050000C94D6000C94D6000C94D6000C94D600C8
:100060000C94D6000C94D6003D3D3D3D3D3D3D3DBC
:100070003D3D3D3D3D3D3D3D3D3D3D3D3D3D3D3DB0
:100080003D3D3D3D3D3D3D3D3D3D3D3D3D3D3D00DD
:100090007C7C2020202020202020202020202020A8
:1000A0002020202020202020202020202020202050
:1000B00020202020207C7C007C7C202020202020F0
:1000C00020506F7765726564206279204172647593
:1000D000696E6F20554E4F2020202020207C7C0010
:1000E0007C7C2020204E455552414C20204E4554CA
:1000F000574F524B202020414920202076312E306E
:1001000020202020207C7C007C7C2020202020209F
:1001100020202020202020202020202020202020DF
:10012000202020202020202020202020207C7C0037
:100130003D3D3D3D3D3D3D3D3D3D3D3D3D3D3D3DEF
:100140003D3D3D3D3D3D3D3D3D3D3D3D3D3D3D3DDF
:100150003D3D3D3D3D3D3D00FE06B10A11241FBE23
:10016000CFEFD8E0DEBFCDBF27E0AEE9B6E001C0FB
:100170001D92A439B207E1F716E0A0E0B1E0E2E594
:10018000FBE102C005900D92AE39B107D9F710E03E
:10019000CDEAD0E004C02197FE010E946A0BCC3A60
:1001A000D107C9F70E9466070C949C0D0C940000BF
:1001B0003FB7F8948091B7069091B806A091B90620
:1001C000B091BA0626B5A89B05C02F3F19F001963D
:1001D000A11DB11D3FBFBA2FA92F982F8827BC01A1
:1001E000CD01620F711D811D911D42E0660F771FC9
:1001F000881F991F4A95D1F708958F929F92AF92C9
:10020000BF92CF92DF92EF92FF924B015C010E946E
:10021000D8006B017C010E94D8006C197D098E0901
:100220009F09683E734081059105A8F321E0821A79
:100230009108A108B10888EEC80E83E0D81EE11C21
:10024000F11C81149104A104B10429F7FF90EF90EF
:10025000DF90CF90BF90AF909F908F900895AF9216
:10026000BF92CF92DF92EF92FF920F931F93CF93A3
:10027000DF936C017B018B01040F151FEB015E0105
:10028000AE18BF08C017D10759F06991D601ED919A
:10029000FC910190F081E02DC6010995892B79F739
:1002A000C501DF91CF911F910F91FF90EF90DF90EB
:1002B000CF90BF90AF900895FC01538D448D252FB2
:1002C00030E0842F90E0821B930B541710F0CF96F0
:1002D000089501970895FC01918D828D981761F022
:1002E000A28DAE0FBF2FB11D5D968C91928D9F5F39
:1002F0009F73928F90E008958FEF9FEF0895FC0118
:10030000918D828D981731F0828DE80FF11D858DCA
:1003100090E008958FEF9FEF0895FC01918D228D5D
:10032000892F90E0805C9F4F821B91098F739927E2
:1003300008958BEB96E00E948D0121E0892B09F452
:1003400020E0822F089580E090E0892B29F00E9420
:10035000990181110C9400000895FC01A48DA80F4F
:10036000B92FB11DA35ABF4F2C91848D90E00196F7
:100370008F739927848FA689B7892C93A089B18917
:100380008C91837080648C93938D848D981306C0B8
:100390000288F389E02D80818F7D80830895EF921C
:1003A000FF920F931F93CF93DF93EC0181E0888F2F
:1003B0009B8D8C8D98131AC0E889F989808185FFFF
:1003C00015C09FB7F894EE89FF896083E889F989A1
:1003D00080818370806480839FBF81E090E0DF91A3
:1003E000CF911F910F91FF90EF900895F62E0B8DF6
:1003F00010E00F5F1F4F0F731127E02E8C8D8E11B1
:100400000CC00FB607FCFACFE889F989808185FF17
:10041000F5CFCE010E94AD01F1CFEB8DEC0FFD2F9A
:10042000F11DE35AFF4FF0829FB7F8940B8FEA89D2
:10043000FB8980818062CFCFCF93DF93EC01888DE1
:100440008823B9F0AA89BB89E889F9898C9185FD4F
:1004500003C0808186FD0DC00FB607FCF7CF8C91DD
:1004600085FFF2CF808185FFEDCFCE010E94AD01E7
:10047000E9CFDF91CF910895FC0101900020E9F7C9
:100480003197AF01481B590BBC018BEB96E00C94E4
:100490002F01CF93DF930E943C02EC0188E191E0B1
:1004A0000E943C028C0F9D1FDF91CF910895CF9346
:1004B000DF93FC0144815581608171818BEB96E073
:1004C0000E942F01EC0188E191E00E943C028C0F18
:1004D0009D1FDF91CF9108958F929F92AF92BF920F
:1004E000CF92DF92EF92FF920F931F93CF93DF9300
:1004F000CDB7DEB7A1970FB6F894DEBF0FBECDBF64
:100500006B017C01F7FE41C06DE28BEB96E00E942F
:10051000CF018C0122273327A9012C193D094E094F
:100520005F0919A2CE0181967C019AE0892E912C57
:10053000A12CB12CCA01B901A50194010E94340B70
:10054000605DF70162937F01211531054105510579
:1005500089F790E080E0309719F0CF010E943C02CB
:10056000800F911FA1960FB6F894DEBF0FBECDBFCE
:10057000DF91CF911F910F91FF90EF90DF90CF907F
:10058000BF90AF909F908F900895AC019B0119A2EE
:100590008E010F5D1F4F8AE0C82ED12CE12CF12C6B
:1005A000CA01B901A70196010E94340B605DF801F0
:1005B00062938F01211531054105510589F790E0BE
:1005C00080E0309779F2CF010E943C02CBCF0F93AD
:1005D0001F93CF93DF938C01D0E0C0E0F801EC0FC4
:1005E000FD1F6491662341F08BEB96E00E94CF01E2
:1005F000892B11F02196F2CF88E191E00E943C0214
:100600008C0F9D1FDF91CF911F910F910895CF9374
:10061000DF93EC0188819981009711F00E940C0C06
:10062000198218821D821C821B821A82DF91CF914F
:100630000895FC0180819181009711F00C940C0CBD
:1006400008950F931F93CF93DF93EC0188819981D5
:10065000009759F02A813B812617370730F081E057
:10066000DF91CF911F910F9108958B016F5F7F4FA5
:100670000E94950C009759F0998388831B830A8305
:100680002C813D81232B59F7FC011082E8CF80E0BB
:10069000E7CFEF92FF920F931F93CF93DF936115F4
:1006A000710541F480E0DF91CF911F910F91FF9090
:1006B000EF90089541155105B1F07B01EC010C81DB
:1006C0001D81040F151FB8010E942103882351F3D7
:1006D000288139818C819D81B701820F931F0E94EF
:1006E0006C0D1D830C8381E0DECFEF92FF920F93A0
:1006F0001F93CF93DF93EC017B018A01BA010E9423
:10070000210381110BC0CE010E940703CE01DF91AE
:10071000CF911F910F91FF90EF9008951D830C834F
:10072000B701888199810E946C0DF0CFFC01118284
:1007300010821382128215821482FB010190002024
:10074000E9F73197AF01461B570B0C9475039F9245
:10075000AF92BF92CF92DF92EF92FF920F931F93CF
:10076000CF93DF935C017B018B01D0E0C0E0F80107
:1007700091908F016501CC0EDD1EC6010E94D30A47
:10078000981621F0692DC6010E94DB0A2196C0321D
:10079000D10569F7C701DF91CF911F910F91FF90AC
:1007A000EF90DF90CF90BF90AF909F900895CF9241
:1007B000DF92EF92FF920F931F93CF93DF93EB01A2
:1007C0007B0120E2E20EF11C8B016C01C61AD70AF4
:1007D000C601800F911F0E94D30AF80181938F01F7
:1007E000EE15FF05A9F7CE01DF91CF911F910F9173
:1007F000FF90EF90DF90CF9008952F923F924F920D
:100800005F926F927F928F929F92AF92BF92CF92A0
:10081000DF92EF92FF920F931F93CF93DF93CDB7A9
:10082000DEB7C856D1400FB6F894DEBF0FBECDBFBD
:100830008BE191E00E9449026BE371E0CE010196E9
:100840002C010E94960361E471E0CE0107960E949C
:1008500096036FE471E0CE010D960E9496036BE55E
:1008600071E0CE0143960E94960364E771E0CE01E9
:1008700049960E9496036FE771E0CE014F960E9461
:10088000960366E971E0CE0185960E94960362EABE
:1008900071E0CE018B960E94960366EA71E0CE016C
:1008A000C1960E94960362EB71E0CE01C7960E944A
:1008B00096036CEC71E0CE01CD960E9496036EED2E
:1008C00071E0CE018D5B9F4F0E94960360EF71E057
:1008D000CE01875B9F4F0E94960368EF71E0CE01C7
:1008E000815B9F4F0E9496036BE072E0CE018B5AB2
:1008F0009F4F0E94960369E172E0CE01855A9F4F97
:100900000E9496036CE272E0CE018F599F4F0E94C5
:10091000960368E372E0CE0189599F4F0E949603C7
:1009200064E472E0CE0183599F4F0E9496036BE40A
:1009300072E0CE018D589F4F0E9496036AE572E0E7
:10094000CE0187589F4F0E9496036EE672E0CE015B
:1009500081589F4F0E94960365E872E0CE018B5745
:100960009F4F0E94960362E972E0CE0185579F4F28
:100970000E94960368EA72E0CE018F569F4F0E9454
:10098000960366EB72E0CE0189569F4F0E94960354
:1009900069EC72E0CE0183569F4F0E94960369ED89
:1009A00072E0CE018D559F4F0E94960360E173E087
:1009B000CE0187559F4F0E94960364EF72E0CE01EF
:1009C00081559F4F0E94960367E173E0CE018B54DF
:1009D0009F4F0E94960360E273E0CE0185549F4FC3
:1009E0000E9496036CE373E0CE018F539F4F0E94E9
:1009F000960369E473E0CE0189539F4F0E949603EA
:100A000067E573E0CE0183539F4F0E94960365E62E
:100A100073E0CE018D529F4F0E94960367E773E00B
:100A2000CE0187529F4F0E94960365E873E0CE0186
:100A300081529F4F0E9496036BE973E0CE018B5168
:100A40009F4F0E9496036BEA73E0CE0185519F4F42
:100A50000E9496036DEB73E0CE018F509F4F0E9472
:100A600096036FEC73E0CE0189509F4F0E9496036E
:100A700062EE73E0CE0183509F4F0E94960364EFB5
:100A800073E0CE018D5F9E4F0E949603820144E683
:100A9000642E712C812C912C5401839466E1262EB6
:100AA000312C8EEF93E00E943C02C501B4010E94FC
:100AB0006C028FE094E00E943C0266E170E080E00E
:100AC00090E00E946C0288E191E00E943C0283E188
:100AD00094E00E943C02F80144815581608171815B
:100AE0008BEB96E00E942F0185E294E00E943C028D
:100AF000C80106960E94570234E6C32ED12C80917D
:100B00008E0790918F0726E0880F991F2A95E1F7AD
:100B10008D599F4F8C159D050CF4CBC0BE01675BB2
:100B20007E4FC6010E94D703BE01675B7E4FCE0198
:100B3000875F9E4F0E949603C35FDE4FE880F98077
:100B4000CD50D140CE01875F9E4F0E941903EF2800
:100B500009F0ABC0F801E480F580E114F10409F07C
:100B600074C0C75DDE4F1882C952D140F801E284DB
:100B7000F384E114F10409F080C0C75FDE4F1882EE
:100B8000C950D140BE01675D7E4FC6010E94A703D8
:100B9000BE01675F7E4FC60180960E94A7038AE26E
:100BA00094E00E94490288E794E00E943C02C3015D
:100BB000B1010E94200B072E000C880B990B0E949C
:100BC0006C0282E894E00E94490266E970E080E0ED
:100BD00090E00E94FD008FEF881A980AA80AB80AD0
:100BE000045F1F4F94E6690E711CE7E18E169104B5
:100BF000A104B10409F055CF84E894E00E944902B1
:100C00008E01075F1E4F06501109C8010E9419038B
:100C100040165106C1F7C859DE4F0FB6F894DEBF33
:100C20000FBECDBFDF91CF911F910F91FF90EF903D
:100C3000DF90CF90BF90AF909F908F907F906F90FC
:100C40005F904F903F902F900895FFE1EF16F104D1
:100C500018F09FE1E92EF12CF80160817181A70164
:100C6000CE01875D9E4F0E94730DE9E2F1E0EC0F2B
:100C7000FD1FEE0DFF1D108279CFFFE1EF16F1048D
:100C800018F08FE1E82EF12CF80166817781A70139
:100C9000CE01875F9E4F0E94730DE9E0F1E0EC0FFB
:100CA000FD1FEE0DFF1D10826DCFF0E4CF0ED11CA5
:100CB00026CF87E494E075CF1F920F920FB60F9264
:100CC00011242F933F938F939F93AF93BF93809162
:100CD000B3069091B406A091B506B091B6063091D6
:100CE000B20623E0230F2D3758F50196A11DB11D43
:100CF0002093B2068093B3069093B406A093B506F2
:100D0000B093B6068091B7069091B806A091B90647
:100D1000B091BA060196A11DB11D8093B7069093BC
:100D2000B806A093B906B093BA06BF91AF919F9150
:100D30008F913F912F910F900FBE0F901F9018959C
:100D400026E8230F0296A11DB11DD2CF1F920F924C
:100D50000FB60F9211242F933F934F935F936F938E
:100D60007F938F939F93AF93BF93EF93FF938BEBFF
:100D700096E00E94AD01FF91EF91BF91AF919F91DD
:100D80008F917F916F915F914F913F912F910F9034
:100D90000FBE0F901F9018951F920F920FB60F92D3
:100DA00011242F938F939F93EF93FF93E091CB06A2
:100DB000F091CC068081E091D106F091D20682FDBF
:100DC0001BC090818091D4068F5F8F732091D506D0
:100DD000821741F0E091D406F0E0E554F94F958F89
:100DE0008093D406FF91EF919F918F912F910F9057
:100DF0000FBE0F901F9018958081F4CFEBEBF6E0BB
:100E00001382128288EE93E0A0E0B0E084839583A1
:100E1000A683B7838AE091E09183808385EC90E09C
:100E20009587848784EC90E09787868780EC90E0B4
:100E3000918B808B81EC90E0938B828B82EC90E0A5
:100E4000958B848B86EC90E0978B868B118E128E1F
:100E5000138E148E8EE090E090938F0780938E0710
:100E60006AE171E088E897E00E9496036AE171E028
:100E700082E897E00E94960363ED74E088E597E0CE
:100E80000E94960360EA74E08EE597E00E94960364
:100E900065EA74E084E697E00E9496036BEA74E0EA
:100EA0008AE697E00E94960366EB74E080E797E09D
:100EB0000E9496036FEB74E086E797E00E9496032A
:100EC0006CEC74E08CE797E00C949603CF93DF937F
:100ED000CDB7DEB7CC54D1090FB6F894DEBF0FBE44
:100EE000CDBF789484B5826084BD84B5816084BDB3
:100EF00085B5826085BD85B5816085BD80916E00B8
:100F0000816080936E0010928100809181008260E8
:100F10008093810080918100816080938100809125
:100F200080008160809380008091B1008460809314
:100F3000B1008091B00081608093B00080917A0010
:100F4000846080937A0080917A00826080937A0036
:100F500080917A00816080937A0080917A00806825
:100F600080937A001092C100E091CB06F091CC06FC
:100F700082E08083E091C706F091C8061082E0917C
:100F8000C906F091CA068FEC80831092D306E091D7
:100F9000CF06F091D00686E08083E091CD06F091F7
:100FA000CE06808180618083E091CD06F091CE06EF
:100FB000808188608083E091CD06F091CE068081AB
:100FC00080688083E091CD06F091CE0680818F7D90
:100FD000808380919E068111BDC080E391E00E94D4
:100FE000E70288E091E00E94E70280EE90E00E9434
:100FF000E70288EB90E00E94E70280E990E00E941F
:10100000E70288E690E00E94E70260ED77E080E08A
:1010100090E00E94FD0088ED94E00E94490268EB98
:101020007BE080E090E00E94FD0085EF94E00E946C
:10103000490268EB7BE080E090E00E94FD0034E62E
:10104000E32EF12C10E000E080918E0790918F0745
:1010500026E0880F991F2A95E1F78D599F4F8E152D
:101060009F05DCF0BE016F5F7F4FC7010E94D70371
:10107000BE016F5F7F4FCE0181960E949603CDA087
:10108000DEA0CE0181960E941903CD2811F00F5FDA
:101090001F4F80E4E80EF11CD7CF88E095E00E9456
:1010A0003C02B80196E0660F771F9A95E1F7072E8C
:1010B000000C880B990B0E946C028AE195E00E945B
:1010C0003C026CE973E080E090E00E946C0288E1F1
:1010D00091E00E943C0260ED77E080E090E00E94A9
:1010E000FD008CE195E00E94490260EA7FE080E02B
:1010F00090E00E94FD0087E395E00E94490260EACB
:101100007FE080E090E00E94FD0085E595E00E9490
:10111000490268EB7BE080E090E00E94FD0089E6F8
:1011200095E00E94490287E795E00E94490288E124
:1011300091E00E943C0260ED77E080E090E00E9448
:10114000FD000E94FD0385E995E00E94490281E0CF
:1011500080939E0680E0A82E80E0B82E77247394BA
:101160008091AA06811108C06AE171E084EA96E0E4
:101170000E9496037092AA068BEB96E00E948D0166
:10118000892B29F08BEB96E00E946B01F5CF8BEB5E
:1011900096E00E948D011816190644F58BEB96E037
:1011A0000E946B019091A306992361F19FB7F89477
:1011B0004091B3065091B4066091B5067091B606A1
:1011C0009FBF00919F061091A0062091A10630912B
:1011D000A2064017510762077307A0F450E040E0F1
:1011E0006AE171E084EA96E00E947503A114B104FB
:1011F00009F4B6CF0E949901882309F4AFCF0E9469
:101200000000A8CF4091A8065091A9068D3019F092
:101210008A3009F067C14115510541F329961FAE87
:101220001EAE29972B961FAE1EAE2B972D961FAE86
:101230001EAE2D976091A4067091A50661157105EB
:1012400029F0CE01895B9F4F0E9475036AEB75E020
:10125000CE0101960E9496032D964EAD5FAD2D975F
:1012600029966EAD7FAD2997CE0101960E94490364
:10127000811104C0CE0101960E940703CE010196A0
:101280000E945702CE0101960E94190329960EADC5
:101290001FAD29970115110571F0F80181918F019A
:1012A000882349F0082E000C990B0E94520DF8017A
:1012B00031978083F2CF2996CEACDFAC2997C11449
:1012C000D10449F02D960EAD1FAD2D977601011575
:1012D000110509F059C02D96EEACFFAC2D9729965B
:1012E000CEACDFAC299708E517E0E114F10461F01A
:1012F000F80160817181C6010E94820D009721F082
:101300008C199D0997FF0FC10A5F1F4FF7E0023844
:101310001F0759F704E610E0BE016F5D7F4FC8015B
:101320000E94D703BE016F5F7F4FC80180960E9465
:10133000D703BE016F5D7F4FCE018F5B9F4F0E9431
:10134000960327962EAD3FAD27972D968EAD9FAD78
:101350002D972817390709F064C023968EAD9FADED
:10136000239729966EAD7FAD2997009709F448C061
:101370006115710509F09DC0232B09F49DC0FC0186
:10138000808190E04AC074014701FFEF8F1A9F0AE5
:10139000F7018081082E000C990B0E94C70A892B47
:1013A00091F7015011090C0D1D1DF8018081082EC7
:1013B000000C990B0E94C70A892B31F00E151F05EE
:1013C00018F001501109F1CFA8014F5F5F4F4E197E
:1013D0005F092D965FAF4EAF2D97CE14DF0420F43A
:1013E000B701C6010E945A0D2996EEADFFAD2997AF
:1013F0002D968EAD9FAD2D97E80FF91F10826BCF04
:101400006115710509F458C0232B09F455C0FB017F
:10141000808190E0919581959109FF24F394892B27
:1014200009F0F12CCE018F5B9F4F0E941903FF2022
:1014300009F445C0BE016F5F7F4FCE018F5B9F4FA8
:101440000E94960327968EAD9FAD2797892B09F4AE
:1014500040C063ED75E0CE0101960E949603279689
:101460004EAD5FAD279723966EAD7FAD2397CE012E
:1014700001960E944903811104C0CE0101960E9489
:101480000703CE0101960E945702CE0101960E94E9
:101490001903CE018F5B9F4F0E945702CE018F5BD5
:1014A0009F4F0E941903CE01895B9F4F0E94190331
:1014B00095CE0E94630DB1CFFF24F394B3CF005CAF
:1014C0001F4F0432F4E01F0709F026CF6AE171E0F4
:1014D000B4CF84EF95E00E94490281E396E00E9438
:1014E0004902DCCF89831A828A010F5F1F4FB8013E
:1014F00084EA96E00E942103882309F477CE2091A4
:10150000A4063091A5068091A8069091A906BE0177
:101510006F5F7F4F820F931F0E946C0D1093A9067F
:101520000093A80663CE89E496E00E944902709277
:10153000A3062FB7F8948091B3069091B406A091BA
:10154000B506B091B6062FBF805E914BAF4FBF4F2F
:1015500080939F069093A006A093A106B093A20645
:10156000A2CFCF93DF93C2E8D7E02697CE010E94A7
:10157000190387E0C835D807C1F782E897E00E94D1
:10158000190388E897E0DF91CF910C94190391112A
:101590000C94D00A803219F089508550C8F708950C
:1015A000992788270895F999FECF92BD81BDF89AB1
:1015B000992780B50895262FF999FECF1FBA92BDBD
:1015C00081BD20BD0FB6F894FA9AF99A0FBE019624
:1015D00008952F923F924F925F926F927F928F92D7
:1015E0009F92AF92BF92CF92DF92EF92FF920F93B2
:1015F0001F93CF93DF93CDB7DEB7CA1BDB0B0FB6BC
:10160000F894DEBF0FBECDBF09942A883988488878
:101610005F846E847D848C849B84AA84B984C8840E
:10162000DF80EE80FD800C811B81AA81B981CE0F05
:10163000D11D0FB6F894DEBF0FBECDBFED010895EA
:1016400097FB072E16F4009407D077FD09D00E946F
:10165000560B07FC05D03EF4909581959F4F089559
:10166000709561957F4F0895A1E21A2EAA1BBB1BAE
:10167000FD010DC0AA1FBB1FEE1FFF1FA217B3075E
:10168000E407F50720F0A21BB30BE40BF50B661F74
:10169000771F881F991F1A9469F760957095809538
:1016A00090959B01AC01BD01CF010895AA1BBB1B06
:1016B00051E107C0AA1FBB1FA617B70710F0A61B52
:1016C000B70B881F991F5A95A9F780959095BC0173
:1016D000CD010895EE0FFF1F0590F491E02D0994C0
:1016E0000F931F93CF93DF938230910510F482E024
:1016F00090E0E0919207F091930730E020E0B0E0B5
:10170000A0E0309799F42115310509F44AC0281B4F
:10171000390B24303105D8F58A819B81611571051B
:1017200089F1FB0193838283FE0111C040815181C5
:101730000281138148175907E0F04817590799F4B7
:10174000109761F012960C93129713961C93329691
:10175000CF01DF91CF911F910F91089500939207D0
:1017600010939307F4CF2115310551F04217530719
:1017700038F0A901DB019A01BD01DF01F801C1CFF9
:10178000EF01F9CF9093930780939207CDCFFE019D
:10179000E20FF31F819391932250310939832883FB
:1017A000D7CF2091900730919107232B41F42091BE
:1017B000020130910301309391072093900720910B
:1017C0000001309101012115310541F42DB73EB7DB
:1017D0004091040150910501241B350BE0919007C5
:1017E000F0919107E217F307A0F42E1B3F0B281787
:1017F000390778F0AC014E5F5F4F2417350748F08A
:101800004E0F5F1F509391074093900781939193E0
:101810009FCFF0E0E0E09CCFCF93DF930097E9F01B
:10182000FC01329713821282A0919207B091930724
:10183000ED0130E020E01097A1F420813181820F8A
:10184000931F20919007309191072817390709F0CD
:1018500061C0F0939107E0939007DF91CF910895D5
:10186000EA01CE17DF07E8F54A815B819E01411549
:101870005105B1F7E901FB83EA8349915991C40FFE
:10188000D51FEC17FD0761F4808191810296840FCA
:10189000951FE90199838883828193819B838A8341
:1018A000F0E0E0E012968D919C9113970097B9F5C6
:1018B0002D913C911197CD010296820F931F20919B
:1018C0009007309191072817390739F6309751F56D
:1018D0001092930710929207B0939107A0939007EC
:1018E000BCCFD383C28340815181840F951FC81719
:1018F000D90761F44E5F5F4F88819981480F591F66
:10190000518340838A819B81938382832115310592
:1019100009F0B0CFF0939307E09392079ECFFD01BB
:10192000DC01C0CF13821282D7CFB0E0A0E0EBE998
:10193000FCE00C94EB0A8C01009751F4CB010E945F
:10194000700B8C01C801CDB7DEB7E0E10C94070B3A
:10195000FC01E60FF71F9C0122503109E217F30743
:1019600008F49DC0D901CD91DC911197C617D70716
:1019700098F0C530D10530F3CE010497861797074C
:1019800008F3C61BD70B2297C193D1936D937C9319
:10199000CF010E940C0CD6CF5B01AC1ABD0A4C01E2
:1019A0008C0E9D1EA0919207B0919307512C412C53
:1019B000F12CE12C109731F58091900790919107CF
:1019C0008815990509F05CC04616570608F058C0FE
:1019D0008091000190910101009741F48DB79EB76D
:1019E0004091040150910501841B950BE817F907FC
:1019F00008F055C0F0939107E0939007F9017183C7
:101A00006083A0CF8D919C91119712966C90129744
:101A100013967C901397A815B90559F56C0142E00F
:101A2000C40ED11CCA14DB0420F1AC014A195B09B5
:101A3000DA011296159780F0628273825183408397
:101A4000D9016D937C93E114F10471F0D7011396E1
:101A5000FC93EE93129776CF22968C0F9D1FF9017F
:101A600091838083F301EFCFF0939307E093920784
:101A700069CF4816590608F42C017D01D3019ACF8D
:101A8000CB010E94700B7C01009749F0AE01B801B8
:101A90000E945A0DC8010E940C0C870153CF10E020
:101AA00000E050CF9111089581548A5108F4805E6E
:101AB000855A0895FB01DC0102C001900D9241504E
:101AC0005040D8F70895FB01DC018D9101908019F9
:101AD0000110D9F3990B0895FB01DC0101900D92DF
:101AE0000020E1F70895FB01DC014150504048F02F
:101AF00001900D920020C9F701C01D924150504045
:101B0000E0F70895FB0151915523A9F0BF01DC01D5
:101B10004D9145174111E1F759F4CD010190002095
:101B200049F04D9140154111C9F3FB014111EFCF2F
:101B300081E090E00197089510E0CDEAD0E004C084
:101B4000FE010E946A0B2196CE3AD107C9F7F8949C
:101B5000FFCF00009407800000000000CF012F019C
:101B60005C011C028D016B017F010D0A005B444585
:101B70004255475D204175746F2D66656564696ED9
:101B80006720737461727465642E2E2E0068656C14
:101B90006C6F0068656C6C6F2063726561746F7246
:101BA00000686F772061726520796F750049206148
:101BB0006D20646F696E672077656C6C2C20637292
:101BC0006561746F72007768617420697320757045
:101BD000004A757374207468696E6B696E672C2097
:101BE00063726561746F72006920646F6E74206B3C
:101BF0006E6F77005965730077686F20617265209A
:101C0000796F75004920616D20796F7572206E655E
:101C10007572616C206372656174696F6E007768BC
:101C2000617420697320796F7572206E616D650033
:101C30004D79206E616D65206973204E4E2D554E95
:101C40004F0068656C70206D65004920616D2068EB
:101C50006572652C2063726561746F7200796F75AF
:101C60002061726520736D617274005468616E6BDF
:101C700020796F752C2063726561746F72006865DE
:101C80006C6C6F20746865726500486920637265CA
:101C900061746F7221007468616E6B7300596F75A7
:101CA0002772652077656C636F6D65007768617476
:101CB00020697320746865207765617468657200B7
:101CC000492063616E6E6F742073656E7365207753
:101CD00065617468657200646F20796F7520647245
:101CE00065616D004F6E6C79206F6620636F64656F
:101CF00020616E6420646174610063616E20796F9D
:101D000075207468696E6B00492073696D756C612C
:101D100074652074686F75676874006172652079F6
:101D20006F75206120726F626F740041206E65755F
:101D300072616C206E6574776F726B206F6E2061BC
:101D4000206368697000416C6C206C6561726E651F
:101D500064206D656D6F72792068617320626565BE
:101D60006E2072657365742E007465616368206D02
:101D700065004920616D206865726520746F206878
:101D8000656C7020796F75206C6561726E0063619F
:101D90006E20796F7520636F6465005965732C2020
:101DA000696E2061207761790073617920736F6DAE
:101DB000657468696E67004265657020626F6F7058
:101DC000212048656C6C6F210061726520796F7508
:101DD00020726561647900416C7761797320726566
:101DE0006164792C2063726561746F720077686139
:101DF000742063616E20796F7520646F0052657383
:101E0000706F6E6420616E64206C6561726E007428
:101E1000656C6C206D6520736F6D657468696E67A5
:101E2000004B6E6F776C6564676520697320706F17
:101E300077657200646F20796F7520756E646572C6
:101E40007374616E6400536F6D6574696D657300C2
:101E50005B44454255475D2046656564696E672071
:101E600000202F20005B44454255475D2053746F8E
:101E700072696E673A2000203D3E20005B44454277
:101E800055475D2053746F72656420737563636595
:101E9000737366756C6C7921005B4552524F525DCD
:101EA00020454550524F4D2069732066756C6C215A
:101EB0002043616E6E6F742073746F7265206D6F56
:101EC00072652070616972732E0046656564696E83
:101ED000673A200025005B44454255475D20417527
:101EE000746F2D6665656420636F6D706C657465D5
:101EF000210066616B650065786973740073696DB4
:101F0000756C6174696F6E006E6F74207265616CC0
:101F10000061726520796F75207265616C00617275
:101F2000656E2774207265616C00426F6F74696E14
:101F300067204E657572616C204E6574776F726BA9
:101F40002041492E2E2E00436865636B696E672021
:101F50006D656D6F72792E2E2E003E3E204D656DA3
:101F60006F72792055736167653A20002F00496EC2
:101F7000697469616C697A696E67206C6F676963FF
:101F800020636F72652E2E2E00496E69746961742C
:101F9000696E67206E657572616C20706174687718
:101FA0006179732E2E2E0046696E616C697A696EB6
:101FB000672073657475702E2E2E005379737465C7
:101FC0006D2052656164792E002D2D2D2D2D2D2D26
:101FD0002D2D2D2D2D2D2D2D2D2D2D2D2D2D2D2D31
:101FE0002D2D2D2D2D2D000A547261696E696E679D
:101FF00020636F6D706C6574652E20456E7465721C
:102000002061206D6573736167653A005B444542EA
:1020100055475D2048616E646C696E6720696E701B
:1020200075743A20005B44454255475D20466F7504
:102030006E64206C6561726E656420726573706F8A
:102040006E73653A20005B44454255475D204E6FF4
:10205000206C6561726E656420726573706F6E735B
:102060006520666F756E642E20526573706F6E64A6
:10207000696E6720776974682066616C6C62616361
:102080006B2E004920646F6E277420756E64657234
:102090007374616E64207965742E007B4552524FD3
:1020A000523A204D65737361676520436F6E7461AA
:1020B000696E7320496C6C6567616C20496E666F50
:1020C000726D6174696F6E2E2054686520414920DD
:1020D00077696C6C20726573657420616E6420652D
:1020E0006E74657220636F6F6C646F776E2E7D0007
:107E0000112484B714BE81FFF0D085E080938100F7
:107E100082E08093C00088E18093C10086E0809377
:107E2000C20080E18093C4008EE0C9D0259A86E02C
:107E300020E33CEF91E0309385002093840096BBD3
:107E4000B09BFECF1D9AA8958150A9F7CC24DD24C4
:107E500088248394B5E0AB2EA1E19A2EF3E0BF2EE7
:107E6000A2D0813461F49FD0082FAFD0023811F036
:107E7000013811F484E001C083E08DD089C08234E0
:107E800011F484E103C0853419F485E0A6D080C0E4
:107E9000853579F488D0E82EFF2485D0082F10E0AE
:107EA000102F00270E291F29000F111F8ED06801E7
:107EB0006FC0863521F484E090D080E0DECF843638
:107EC00009F040C070D06FD0082F6DD080E0C81688
:107ED00080E7D80618F4F601B7BEE895C0E0D1E017
:107EE00062D089930C17E1F7F0E0CF16F0E7DF06D8
:107EF00018F0F601B7BEE89568D007B600FCFDCFD4
:107F0000A601A0E0B1E02C9130E011968C91119780
:107F100090E0982F8827822B932B1296FA010C0160
:107F200087BEE89511244E5F5F4FF1E0A038BF0790
:107F300051F7F601A7BEE89507B600FCFDCF97BE46
:107F4000E89526C08437B1F42ED02DD0F82E2BD052
:107F50003CD0F601EF2C8F010F5F1F4F84911BD097
:107F6000EA94F801C1F70894C11CD11CFA94CF0C13
:107F7000D11C0EC0853739F428D08EE10CD085E9AC
:107F80000AD08FE07ACF813511F488E018D01DD067
:107F900080E101D065CF982F8091C00085FFFCCF94
:107FA0009093C60008958091C00087FFFCCF809118
:107FB000C00084FD01C0A8958091C6000895E0E648
:107FC000F0E098E1908380830895EDDF803219F02E
:107FD00088E0F5DFFFCF84E1DECF1F93182FE3DFCA
:107FE0001150E9F7F2DF1F91089580E0E8DFEE27F6
:047FF000FF270994CA
:027FFE00040479
:00000001FF
